:020000040800F2
:10000000D832002079020008951900083918000834
:100010009119000891030008611F0008000000000A
:10002000000000000000000000000000F91B0008B4
:1000300095030008000000009D190008FD1B000842
:10004000930200089302000893020008930200083C
:10005000930200089302000893020008930200082C
:10006000930200089302000893020008930200081C
:10007000930200089302000893020008930200080C
:100080009302000800000000930200089302000899
:1000900093020008930200089302000893020008EC
:1000A00093020008930200089302000893020008DC
:1000B00093020008930200089302000893020008CC
:1000C00093020008930200089302000893020008BC
:1000D00093020008930200089302000893020008AC
:1000E000930200089302000893020008930200089C
:1000F0009302000893020008930200080000000029
:1001000000000000930200080000000093020008B5
:100110009302000800000000930200089302000808
:10012000930200089302000893020008930200085B
:100130009302000800000000000000009302000885
:100140009302000893020008000000000000000075
:10015000000000000000000000000000000000009F
:1001600000000000000000000000000093020008F2
:1001700093020008000000000000000000000000E2
:1001800000000000930200080000000000000000D2
:10019000000000000000000000000000000000005F
:1001A0000000000000000000930200089302000815
:1001B0009302000893020008930200080000000068
:1001C0000000000093020008000000000000000092
:1001D000930200089302000800F002F800F03CF8D7
:1001E0000AA090E8000C82448344AAF10107DA4592
:1001F00001D100F031F8AFF2090EBAE80F0013F0A8
:10020000010F18BFFB1A43F001031847E01E00005E
:10021000001F0000103A24BF78C878C1FAD85207EE
:1002200024BF30C830C144BF04680C607047000070
:100230000023002400250026103A28BF78C1FBD8EF
:10024000520728BF30C148BF0B6070471FB501F08F
:1002500038FF1FBD10B510BD00F060F81146FFF764
:10026000F5FF01F07FFE00F07EF803B4FFF7F2FF28
:1002700003BC00F085F800000948804709480047A2
:10028000FEE7FEE7FEE7FEE7FEE7FEE7FEE7FEE746
:10029000FEE7FEE704480549054A064B70470000A3
:1002A000011C0008D9010008D82C0020D8320020F9
:1002B000D82E0020D82E002002F0FF0343EA0322AC
:1002C00042EA024200F002B84FF0000200B51346C5
:1002D00094469646203922BFA0E80C50A0E80C5066
:1002E000B1F12001BFF4F7AF090728BFA0E80C5017
:1002F00048BF0CC05DF804EB890028BF40F8042B10
:1003000008BF704748BF20F8022B11F0804F18BF7C
:1003100000F8012B7047704770477047754600F032
:100320002BF8AE4605006946534620F00700854687
:1003300018B020B5FFF7AEFFBDE820404FF0000633
:100340004FF000074FF000084FF0000BAC46ACE850
:10035000C009ACE8C009ACE8C009ACE8C00921F0AC
:1003600007018D46704710B50446AFF30080204664
:10037000BDE81040FFF779BF00487047100000202B
:1003800001491820ABBEFEE72600020070470000BE
:10039000FEE700007047000010B5002800F0B280B2
:1003A0004EF2100147F2001CCEF20001C0F2020C26
:1003B00010F00302A0F1010E30D00023C1F804C0F8
:1003C0008B6005230B600B68DB0309D40B68DB0330
:1003D0005CBF0B685FEAC33302D40B68DB03F2D562
:1003E00004230B60012A734630D00023C1F804C0F7
:1003F0008B6005230B600B68DB0309D40B68DB0300
:100400005CBF0B685FEAC33302D40B68DB03F2D531
:100410000423022A0B6003D1831E17E0034615E074
:100420000022C1F804C08A6005220A600A68D2036B
:1004300009D40A68D2035CBF0A685FEAC23202D4F8
:100440000A68D203F2D5C31E04200860BEF1030F70
:1004500038BF10BD4FF0000E0522042003E000BF9E
:10046000043B08604ED0C1F804C0C1F808E00A603F
:100470000C68E4030AD40C68E4035CBF0C685FEA10
:10048000C43403D40C68E403F2D500BF0860C1F89B
:1004900004C0C1F808E00A600C68E4030AD40C68E0
:1004A000E4035CBF0C685FEAC43403D40C68E40363
:1004B000F2D500BF0860C1F804C0C1F808E00A60C6
:1004C0000C68E4030AD40C68E4035CBF0C685FEAC0
:1004D000C43403D40C68E403F2D500BF0860C1F84B
:1004E00004C0C1F808E00A600C68E403B8D40C68E2
:1004F000E4035CBF0C685FEAC434B1D40C68E40365
:10050000F2D5ADE710BD00004EF2100100EB800007
:10051000CEF200014001486000208860052008609C
:100520000868C00309D40868C0035CBF08685FEAB4
:10053000C03002D40868C003F2D5042008607047B8
:10054000B0B53C200021002400F0D4F801200121A6
:1005500000F0D0F82420002100F0CCF841F2F7554B
:10056000FF20012100F0C6F8AC4204F10104F7D3EA
:1005700026200021002400F0BDF841F2F75500BF0D
:100580000020012100F0B6F8AC4204F10104F7D3D9
:10059000B0BD0000B0B540F20044C4F600042046EF
:1005A00040210022002500F02FFA0A20FFF7F4FE78
:1005B00020464021012200F027FA0A20FFF7ECFE36
:1005C0001220002100F096F80A20FFF7E5FE40F225
:1005D0007004C2F2000410200021A57100F08AF816
:1005E0000020012100F086F83C20002100F082F874
:1005F0000520012100F07EF80120002100F07AF8AA
:10060000207801210138C0B200F074F8208801215F
:10061000013800EB1060C0F3072000F06BF80020F9
:10062000012100F067F81120002100F063F8032099
:10063000012100F05FF84420002100F05BF8002069
:10064000012100F057F860884FF0FF3101EBD00036
:10065000C0B2012100F04EF84520002100F04AF818
:100660000020012100F046F80020012100F042F8AE
:10067000207801210138C0B200F03CF82088012127
:10068000013800EB1060C0F3072000F033F84E2073
:10069000002100F02FF80020012100F02BF84F205E
:1006A000002100F027F80020012100F023F80020AD
:1006B000012100F01FF81820002100F01BF8802015
:1006C000012100F017F82120002100F013F800208C
:1006D000012100F00FF88020012100F00BF822200A
:1006E000002100F007F891200121BDE8B04000F0A2
:1006F00001B80000B0B582B040F27005C2F200054A
:100700000C4629798DF8070041B36879A0420BD0D7
:1007100040F20040C4F600001021224600F074F9B7
:1007200002206C71FFF7F0FE4FF090404FF4006133
:1007300000F064F928B342F60154C0F2311400BF4E
:100740000120013C1CD0FFF7DFFE4FF090404FF43A
:10075000006100F053F90028F2D112E040F20040AD
:10076000C4F6000000F580604FF48061002200F0C4
:100770004BF90220FFF7C8FE6879A042C8D1D3E741
:10078000287242F66C40C2F200000DF1070101220E
:10079000C82300F005FF02B0B0BD000080B52220E4
:1007A0000021FFF7A7FFF4200121FFF7A3FF20207E
:1007B0000021BDE88040FFF79DBF0000B0B50C46AA
:1007C00005464E200021FFF795FFE0B20121FFF71B
:1007D00091FF4F200021FFF78DFFE8B20121FFF7C5
:1007E00089FF280A0121BDE8B040FFF783BF000060
:1007F000F0B581B00F460546442000211E46144640
:10080000FFF778FFF8B20121FFF774FFC6F3C700C6
:100810000121FFF76FFF45200021FFF76BFFE8B2D2
:100820000121FFF767FF280A0121FFF763FFE0B20C
:100830000121FFF75FFF200A012101B0BDE8F04070
:10084000FFF758BFEFF3108072B600BFFEE700005D
:100850002DE9F04F82B00D68002D00F0CB8041F201
:10086000004400F13847C4F6000406224FEAB726D8
:10087000A04208BF0522052E38BF4FEAB722002448
:1008800001274FF0000E0026009209E00D680136A6
:1008900035FA06F20EF1040E04F1020400F0AA800B
:1008A00007FA06FB15EA0B08F0D0D1F804A00322E2
:1008B0000AF0030CACF10105A240012D6FEA020918
:1008C00010D88268CD6802EA0902A5402A438260F6
:1008D0004268CAF3001522EA0B02B5402A4342607F
:1008E00006E000BFBCF1030F02D14FF0030C21E082
:1008F000C2688D6802EA0902A5402A43BCF1020FD2
:10090000C26017D16FF0030202EA560202440EF0F1
:100910001C030F25D2F820C005FA03FA0D692CEA52
:100920000A0C05FA03F343EA0C031362D1F804A09E
:100930000AF0030C02680CFA04F302EA09021A43F3
:100940001AF4403F0260A1D041F26003C4F20203F6
:100950001A6840F2004942F001021A601A68C4F2B3
:10096000010902F001020192019A26F003024FF6FA
:10097000084A4A44CFF6FF7A52F80AC00EF00C0536
:100980000F23009FAB402CEA030307FA05F52B4326
:1009900042F80A30D9F808C04B684CEA0805DA0278
:1009A00058BF2CEA080540F20C4CC9F80850C4F2B4
:1009B000010CDCF800209F0242EA080558BF22EA39
:1009C0000805CCF80050D9F804209D0342EA080736
:1009D00058BF22EA0807C9F80470D9F80020DB03E1
:1009E00042EA080758BF22EA0807C9F80070012741
:1009F0004CE700BF02B0BDE8F08F0000006908407E
:100A000018BF0120704700001823002A08BF2823C0
:100A1000C150704742F6D040C2F2000000687047F3
:100A200040F2000042F6D041C2F20000C2F20001E2
:100A300040680A68104408607047000080B50320D1
:100A400000F078F80F2000F009F800281CBF012002
:100A500080BD00F029F8002080BD000070B540F294
:100A60000006C2F200067168E1B1044640F20800D7
:100A7000C2F200004FF47A720068B2FBF1F1B0FBF1
:100A8000F1F000F0C3FE0F2C4FF0010508D838B983
:100A90004FF0FF3021460022002500F01FF834609F
:100AA000284670BD012070BD82B041F25800C4F2EA
:100AB0000200816841F001018160816801F001015B
:100AC00001910199016841F080510160006800F0D6
:100AD00080500090009802B000F0D0B810B54EF6EB
:100AE0000C5CCEF2000CDCF80030C3F3022E8EF06A
:100AF0000704042C28BF0424BEF103034FF0FF3E7B
:100B00000EFA04F438BF0023A14399400EFA03F310
:100B10009A43114300F00F0200F160430901043AC7
:100B200003F564436244002848BF02F10C031970C6
:100B300010BD00004EF60C51CEF200010A684FF6CF
:100B4000FF031A4060F30A2242F0806040F0FD701B
:100B500008607047B0F5007F42D0002840F08080E8
:100B600047F21400C4F2000050F8141CC26E01F4E5
:100B7000C06122F48072B1F5806FC2662ED150F848
:100B8000141C012262F34A2140F8141C40F20801AF
:100B9000C2F200010968322251434DF68362C4F269
:100BA0001B32A1FB0212910C0268520511D54A1C9E
:100BB0000FD0026852050CD559B10268520508D50C
:100BC000012906D00268520503D50229A1F10401CA
:100BD000EAD10068400544BF0320704700207047F9
:100BE00047F21400C4F2000050F8141CC26E01F465
:100BF000C06142F48072B1F5806FC266EED150F8E8
:100C0000141C012262F34A2140F8141C40F208012E
:100C1000C2F200010968322251434DF68362C4F2E8
:100C20001B32A1FB0212910C0268520511D54A1C1D
:100C30000FD0026852050CD559B10268520508D58B
:100C4000012906D00268520503D50229A1F1040149
:100C5000EAD10068400544BF03207047BEE700BFEB
:100C600047F21400C4F2000050F8141C022262F390
:100C70004A2140F8141C00207047000047F2080089
:100C8000C4F20000016841F4804101607047000037
:100C9000704700002DE9F047002865D042F2000AB5
:100CA000C4F2020A0446DAF800000D4600F00F0014
:100CB00088420CD2DAF8000020F00F002843CAF86E
:100CC0000000DAF8000000F00F00A8424CD12168C3
:100CD00041F20808C807C4F2020803D1880740F1AE
:100CE000C880ADE06068022832D0032838D158F8B7
:100CF000082C920138D5D8F80420D8F8042042F204
:100D00000043C2F30312D8F804700132C0F2F403B6
:100D1000B3FBF2F2C7F30623D8F804705A43C7F3C3
:100D20004163022707EB4303B2FBF3F24BF20043AC
:100D3000C0F2C4439A4259D9D8F8002012F0F00FFB
:100D400049D0890752D5A16800294FD143E000BF9F
:100D500058F8081C89035CBF0120BDE8F08707E054
:100D600058F8081C490503D40120BDE8F08700BFEE
:100D7000D8F8001001F00C01042937D0D8F8001081
:100D800001F00C01082931D0D8F8001001F00C0155
:100D90000C292BD1D8F80410D8F8041042F20042E4
:100DA000C1F30311D8F804300131C0F2F402B2FBF0
:100DB000F1F1C3F30622D8F804305143C3F3416282
:100DC000022303EB4202B1FBF2F14BF20042C0F20C
:100DD000C44291420AD9D8F80010082262F30711E0
:100DE0004FF00109C8F8001002E000BF4FF0000901
:100DF000D8F8001021F003010843C8F80000FFF7FD
:100E000009FE064641F28837D8F80000616800F014
:100E10000C00B0EB810F07D0FFF7FCFD801BB84240
:100E2000F2D90320BDE8F0872168880708D4B9F11A
:100E3000000F1ED0D8F8000020F0F00017E000BF2F
:100E4000480705D5D8F8000040F4E060C8F8000075
:100E5000080706D5D8F80000072262F30D20C8F86D
:100E60000000D8F80000A26820F0F0001043C8F895
:100E70000000DAF8000000F00F00A8421BD9DAF8F1
:100E8000000020F00F002843CAF80000FFF7C2FD61
:100E9000064641F2883700BFDAF8000000F00F0084
:100EA000A84207D0FFF7B6FD801BB842F4D9032053
:100EB000BDE8F0872168480707D5D8F80000E26848
:100EC00020F4E0601043C8F80000080708D5D8F8FF
:100ED0000000216920F4605040EAC100C8F8000019
:100EE000D8F8000000F00C00042842F20040C0F2E4
:100EF000F40024D0D8F8001001F00C0108291ED00D
:100F0000D8F8001001F00C010C2917D1D8F8041002
:100F1000D8F80410D8F80420C1F303110131B0FB54
:100F2000F1F0C2F30621D8F804204843C2F341612E
:100F3000022202EB4101B0FBF1F000E00020D8F802
:100F4000001042F2DC02C1F30311C0F60002515C52
:100F500040F2080201F01F0120FA01F140F2000006
:100F6000C2F200000068C2F200021160BDE8F04762
:100F7000FFF774BD41F20000C4F20200016841F4C1
:100F8000002101607047000010B541F21C04C4F25A
:100F900002042068C00558BF10BDFFF779FE4FF46A
:100FA0008070606010BD00002DE9F04182B0002823
:100FB00000F006810446007841F20006C007C4F242
:100FC000020655D12078800774D42078000700F1FC
:100FD00097802078400700F1B7802078800600F1E4
:100FE0000781E569002D00F03082B06800F00C0048
:100FF0000C2840F05981012D00F0E280F068216A50
:1010000000F003028A4240F0DB80626A6FF00F0357
:1010100000F0F00103EB0212914240F0D180A16A8E
:1010200000F4FE42B2EB012F40F0CA80E16A00F00A
:101030007842B2EBC16F40F0C380226B0023CFF641
:10104000E07303EA025200F4C001A2F500129142DB
:1010500040F0B680616B4FF07E4202EA016100F021
:10106000C06001F17E41884240F0AA80EDE100BFFE
:10107000B06800F00C01F06808295BD0032281F011
:101080000C0122EA00000844B0FA80F0400951D176
:101090006068B0F5803F07D0B0F5A02F40F0DA804F
:1010A000306840F480203060306840F48030306038
:1010B000DBE000BFB068F16800F00C00042869D0E4
:1010C00001F0030180F00C0081F002010844B0FA45
:1010D00080F040095ED1E1683068002900F0D280DC
:1010E00040F480703060FFF795FC0546306840059D
:1010F00000F1FC80FFF78EFC401B0228F6D92EE1A0
:101100006169D6F89400002900F0908040F0010059
:10111000C6F89400FFF77EFC054600BFD6F89400A1
:1011200080073FF556AFFFF775FC401B0228F5D945
:1011300015E100BF306880037FF544AF6068002888
:101140007FF440AF3CE000BFB06D10F0805808D194
:10115000B06D40F08050B065B06D00F080500190EF
:10116000019847F20007C4F200073868C0052BD485
:10117000386840F480703860FFF74CFC054600BFCB
:101180003868C00520D4FFF745FC401B0228F7D97A
:10119000E5E000BF3068400501D5E06880B17068C7
:1011A000216920F0FE4040EA0160706040F20000DA
:1011B000C2F200000068FFF751FC00283FF405AFC1
:1011C000012002B0BDE8F081A068012808D0052800
:1011D00040F0AA80D6F8900040F00400C6F89000D5
:1011E000D6F8900040F00100C6F89000A9E000BFDA
:1011F000A169D6F89800002900F0808040F0010035
:10120000C6F89800FFF706FC054600BFD6F8980020
:1012100080073FF5E6AEFFF7FDFB401B02284FF0CD
:101220000300F3D902B0BDE8F08100BF20F0010057
:10123000C6F89400FFF7EEFB054600BFD6F8940011
:1012400080077FF5C6AEFFF7E5FB401B0228F5D906
:1012500085E000BF3168002821F4803131603168B9
:1012600021F48021316000F07F80FFF7D3FB054639
:10127000306880033FF5A6AEFFF7CCFB401B642827
:10128000F6D96CE020F480703060FFF7C3FB0546B0
:10129000306840057FF599AEFFF7BCFB401B022884
:1012A0004FF00300F4D9BDE7306820F08070306063
:1012B000FFF7B0FB022D05460CD100BF306880015E
:1012C00040F17E80FFF7A6FB401B02284FF0030091
:1012D000F4D9A7E73068800140F1B080FFF79AFBAE
:1012E000401B02284FF00300F4D99BE77068216986
:1012F00020F0FE4040EA0160706066E620F00100E8
:10130000C6F89800FFF786FB054600BFD6F89800A0
:1013100080077FF566AEFFF77DFB401B02284FF08C
:101320000300F3D97EE700BFD6F8901021F0010149
:10133000C6F89010D6F8901021F00401C6F890106D
:1013400010B3FFF767FB054641F28837D6F89000E7
:1013500080072BD4FFF75EFB401BB842F6D9032071
:1013600002B0BDE8F08100BFFFF754FB054600BFA7
:10137000306880037FF526AEFFF74CFB401B6428E6
:101380004FF00300F4D94DE7FFF744FB054641F267
:10139000883700BFD6F89000800707D5FFF73AFBE3
:1013A000401BB8424FF00300F4D93BE7B8F1000FFF
:1013B0007FF413AEB06D20F08050B0650DE600BF35
:1013C000F06848F20C01C0F29F1104F1200700EA16
:1013D000010C8ECF6FF00F00D4E90C5400EB02101B
:1013E0000022CFF6E07241EA0C0102EA05520843FE
:1013F000A2F500124FF07E4540EA032005EA04659D
:10140000104305F17E4540EAC7602843F06030682C
:1014100040F080703060F06840F08070F060FFF75E
:10142000F9FA0446306880010FD4FFF7F3FA001B85
:1014300002284FF00300F5D9F4E600BFF0684FF63C
:10144000FC71CFF6EE610840F060002002B0BDE80C
:10145000F0810000002804BF01207047B0B50446A9
:10146000406A28B10020206104F1140006E000BFAA
:101470006068B0F5827F03D004F11C000021016098
:101480000025A56294F85D0020B9204684F85C50E0
:1014900000F052F8022084F85D002068D4F80CE0D7
:1014A0000268BEF5E06F22F0400202604EF4006276
:1014B00098BF0125B2F5706F1CBF0023A3624FEAED
:1014C000053CD4E90135D4E9042103F4827305F421
:1014D00004452B4402F002021A44A36901F0010101
:1014E000E569114403F40072114405F03802256ADD
:1014F000114405F08002A56A114405F4005211431D
:1015000001600421626A0EF4706501EA1341636BA5
:1015100045EA0C0502F01002294303F008031143C9
:1015200019434160C16921F40061C16100200121BA
:10153000206684F85D10B0BD80B586B0006843F2C7
:101540000001C4F20101884202D006B080BD00BF94
:1015500041F24C00C4F20200416941F48051416102
:10156000416901F4805101910199016841F0020142
:101570000160006801A900F0020001900198282094
:101580000190022002900020CDE903000520059083
:1015900040F20040C4F60000FFF75AF906B080BDE3
:1015A0002DE9F04182B0044690F85C00012803D197
:1015B000022002B0BDE8F08101201D4616460F460C
:1015C00084F85C00FFF726FA94F85D1001290DD12C
:1015D0008046002F4FF0010018BF002E0ED10021D1
:1015E00084F85C1002B0BDE8F08100BF0220002149
:1015F00084F85C1002B0BDE8F08100BF0320002138
:1016000084F85D002166A763A687E6872164A4F8B5
:101610004410A4F84610A068E164B0F5004F2068BB
:10162000216507D1016821F040010160016841F4A2
:10163000804101600168490603D4016841F040011E
:1016400001606168731EE268B1FA81F1B3FA83F355
:1016500049095B09B2F5E06F41EA03013CD931B1B8
:1016600037F8021BC160A763E08F0138E087E08F85
:1016700000286FD0681C0CD11DE000BFA16B31F8B1
:10168000022BC260A163E08F0138E087E08F002861
:1016900060D0206881688907F0D4FFF7BBF9A0EB20
:1016A0000800A842F2D30320A5E000BFFFF7B2F97B
:1016B000E08F00284ED0206881688907F6D5A16B9D
:1016C00031F8022BC260A163E08F0138E087E08F20
:1016D0000028F0D13EE000BF89B1E18F02294FF62A
:1016E000FE7103D337F8022BC26004E03A7801316F
:1016F0000273A06B471CA763E08F0844E087E08F6C
:1017000040B3681C5BD04FF6FE70461C08E000BF7B
:10171000FFF780F9A0EB0800A84275D2E08FC8B1AE
:10172000216888688007F3D5E28FA06B022A05D371
:1017300030F8022BCA604FF6FE7104E0007808739F
:10174000A06B31460130A063E08F0844E087E08F52
:101750000028E5D120464FF4C0512A46434600F008
:101760001FF968B920462946424600F0DDF938B92C
:1017700020464FF4C0612A46434600F011F928B1D3
:10178000206E40F02000206620202066A06838B936
:10179000002001902068C168019180680190019843
:1017A000206E38B30120002184F85C1002B0BDE83F
:1017B000F08100BFFFF72EF9E08F0028CAD0206823
:1017C00081688907F6D5E28FA16B012A08D931F823
:1017D000022BC260A163E08F0238E087ECE700BF14
:1017E00009780173A06B0130A063E08F0138E087B6
:1017F000E2E700BF0020012184F85D10002184F899
:101800005C1002B0BDE8F0810320F4E7411E002027
:10181000B0EB116F1CBF012070474EF21002CEF2E8
:10182000000251604EF62351CEF20001F0230B70FE
:101830000721906011607047FEE700002DE9F04F2E
:1018400087B0002741F24C000697C4F202000168FD
:1018500040F2004841F0040101600168C4F600084C
:1018600001F0040101910199016808F5806541F0DA
:10187000200101600168002201F02001019101991D
:1018800001684FF4005641F002010160016801F067
:10189000020101910199016841F0010101600068B4
:1018A0004FF4005100F00100019001982846FFF725
:1018B000ABF840464FF4006100224FF4006BFFF795
:1018C000A3F828464FF4806101224FF480644FF062
:1018D0000109FFF799F84046502101224FF0500AC4
:1018E000FFF792F8CDE9026902AE28463146CDE90C
:1018F0000477FEF7ADFF40463146CDE902B9CDE9A8
:101900000477FEF7A5FF4FF090403146CDE902B7CE
:101910000497FEF79DFFCDE902490324284631468E
:1019200004970594FEF794FF40463146CDE902A99D
:10193000CDE90474FEF78CFF07B0BDE8F08F00001E
:1019400010B542F66C4043F20001C2F20000C4F24E
:1019500001014FF4827200234FF4E06C4FF4007EDB
:10196000102480E80E1007210822C0E90433C0E9E2
:1019700006E4C0E90833C0E90A31C0E90C32FFF7D8
:1019800069FD002808BF10BDBDE81040FEF75ABF32
:10199000FEE70000FFF7F8FAFEE7000070470000DE
:1019A0002DE9F04782B000261F4690460D4681463D
:1019B0008DF80360FFF72EF8381A00EB0807FFF7E1
:1019C00029F840F20801C2F20001096823225143BC
:1019D000090DD9F8004079430191A168294271D0DD
:1019E000824618F1010037D0B5F5C06F1CD100BF99
:1019F000207B8DF803009DF80300FFF70BF8A0EBA8
:101A00000A00B84262D2019801990028A1F10101AF
:101A10000191D9F80010896808BF074611F4C06F1A
:101A2000E6D100264EE000BFFEF7F4FFA0EB0A006F
:101A3000B8424BD2019801990028A1F1010101910E
:101A4000D9F80010896808BF07462942ECD1002662
:101A5000304602B0BDE8F0870026B5F5C06F25D14D
:101A6000207B8DF803009DF80300A06810F4C06F80
:101A7000EDD0207B8DF803009DF80300A06810F4E2
:101A8000C06FE4D0207B8DF803009DF80300A068B0
:101A900010F4C06FDBD0207B8DF803009DF80300AD
:101AA000A06810F4C06FDBD10CE000BFA068284232
:101AB000CDD0A0682842CAD0A0682842C7D0A0686C
:101AC0002842F3D1304602B0BDE8F087D9E90001E1
:101AD0004268B1F5827F22F0E00242600BD1D9F872
:101AE0000810B1F5004F02D0B1F5806F03D1016845
:101AF00021F040010160D9F82810B1F5005F07D14D
:101B0000016821F400510160016841F40051016055
:101B1000012089F85D00002089F85C00032630462A
:101B200002B0BDE8F0870000F0B581B015460E4662
:101B30000446FEF76FFF281A8719FEF76BFF40F285
:101B40000801C2F200010968C1F3CB317943009169
:101B500021688A68120622D50546701C15D000BF80
:101B6000FEF758FF401BB8421CD20098009900288D
:101B7000A1F1010100912168896808BF07460806A4
:101B8000EED40CE08868000609D58868000606D502
:101B90008868000644BF88685FEA0060F2D40020CD
:101BA00001B0F0BDD4E900014268B1F5827F22F0B6
:101BB000E00242600AD1A168B1F5004F02D0B1F550
:101BC000806F03D1016821F040010160A16AB1F585
:101BD000005F07D1016821F400510160016841F400
:101BE00000510160012084F85D00002084F85C0051
:101BF000032001B0F0BD000070470000FEF710BFE9
:101C00004EF68850CEF20000016841F47001016088
:101C1000704700002DE9F04F81B0DDF830B0074685
:101C20000BEB0100DDF828A01FFA80F81C463846AF
:101C3000434615460E46CDF800A000F02FF80BEBFA
:101C400007001FFA80F9384631464A462346CDF848
:101C500000A000F023F8A5EB0B001FFA80FA314634
:101C60000A9E50462A462346009600F017F8A4EB39
:101C70000B0086B238460A9F31462A462346009713
:101C800000F00CF80B9F48464146524633460097F9
:101C900000F004F801B0BDE8F08F00002DE9F04F2E
:101CA00081B0904202D901B0BDE8F08F994211D9BC
:101CB000411C89B29142F6D8811C89B29142F2D876
:101CC000C11C89B29142EED8043081B29142EFD961
:101CD000E9E700BF40F270060A9FC2F2000676886C
:101CE000002F00964AD0012F76D0022F32D140F239
:101CF0007C0C41F274694FF0070E4FF00108C2F2FC
:101D0000000CC2F2000900BF009C87B267434FEA93
:101D1000D70A0C46A5B20AEBD5052EEA04061CF834
:101D2000057008FA06F627EA060B19F80570013463
:101D30003E43A7B29F420CF805B009F80560E9D907
:101D4000013084B29442DFD9ADE700BF013087B2E1
:101D50009742A8D80E4600BF771CBFB29F42F5D865
:101D6000B71CBFB29F42F1D8F71CBFB29F42EDD85B
:101D70000436B7B29F42EFD9E8E700BF40F27C0CCF
:101D800041F274694FF0070E4FF00108C2F2000CE7
:101D9000C2F20009009C87B267434FEAD70A0C469B
:101DA000A5B20AEBD5052EEA04061CF8057008FA60
:101DB00006F627EA060B19F80570013427EA06062D
:101DC000A7B29F420CF805B009F80560E8D90130C8
:101DD00084B29442DED966E740F27C0941F2746A2B
:101DE0004FF0070E4FF00108C2F20009C2F2000ADC
:101DF000009F84B27C434FEAD40B0C46A5B20BEB98
:101E0000D5052EEA040619F8057008FA06F61AF840
:101E100005C03743013409F805702CEA0607A6B25D
:101E20009E420AF80570E9D9013087B29742DFD99E
:101E300039E7000010B540F27000C2F200000188DE
:101E400040884843C40808BF10BD40F27C00C2F27D
:101E500000002146FF22FEF72FFA41F27460C2F221
:101E600000002146FEF730FA10BD00002DE9F041D8
:101E700024200021FEF73EFC40F27004C2F2000470
:101E8000B4F80080B8F1000F20D0608840F27C06E2
:101E9000C2F2000604E000BFB8F1020FB84615DB3D
:101EA0000828A8F10107F7D3002500BF7843C11720
:101EB00000EB517006EBE000405D0121FEF71AFCDB
:101EC00060880135B5EBD00FF0D3E5E7262000217F
:101ED000FEF710FCB4F80080B8F1000F22D0608843
:101EE00041F27466C2F2000606E000BFB8F1020FCC
:101EF000B846B8BFBDE8F0810828A8F10107F5D3BE
:101F0000002500BF7843C11700EB517006EBE000DD
:101F1000405D0121FEF7EEFB60880135B5EBD00F87
:101F2000F0D3E3E7BDE8F08180B5FFF79FFF40F213
:101F30007000C2F20000018840884FF0FF32013982
:101F400002EBD00083B289B200200022FEF750FCE1
:101F500000200021FEF732FCBDE88040FEF71EBCE9
:101F6000FEE7000096B0FEF769FD002400200E9405
:101F7000CDE90C44CDE90A44FEF7ECFD01204FF415
:101F800080310325089009910221CDE910501420D9
:101F9000CDE9120108A80F91CDE91411FFF704F85B
:101FA00020B1EFF3108072B6FEE700BF0F20CDE93D
:101FB000030503A80421CDE905440794FEF76AFE52
:101FC00020B1EFF3108072B6FEE700BF40F60004C8
:101FD000C4F60004FEF7CEFFFFF730FCFFF7B0FCBD
:101FE00020464FF4005100220025FEF70DFD32205F
:101FF000FEF7D2F920464FF4005101220126FEF7E8
:1020000003FD3220FEF7C8F920464FF400510022AC
:10201000FEF7FAFC3220FEF7BFF920464FF40051DC
:102020000122FEF7F1FC3220FEF7B6F940F2700013
:1020300040F22811C2F20000C0F2980101604FF492
:10204000807105724160FEF7A5FAFFF7F3FEFEF717
:1020500077FA02270020192164223223CDE90056A5
:102060000297FFF7D7FD6E200021D2223223CDE95F
:1020700000570297FFF7CEFD6E206421D2229623EF
:10208000CDE900760297FFF7C5FDFFF74DFF002071
:1020900000213C223C230095FFF700FE20464FF430
:1020A00000510022FEF7B0FCC820FEF775F920466B
:1020B0004FF400510122FEF7A7FCC820FEF76CF98F
:1020C000ECE7F1EE100A4FF6FF71C0F2C03120EAE2
:1020D000010040F04070E1EE100A7047000000007F
:1020E000000000000102030406070809102100088F
:1020F0000000002010000000140200082021000849
:1021000010000020C832000030020008000000006B
:1021100010000000010000000024F4000000000096
:04000005080001D915
:00000001FF
