:020000040800F2
:10000000D8320020A502000849190008ED170008A1
:1000100045190008BD030008D91E000800000000B3
:10002000000000000000000000000000A51B000808
:10003000C10300080000000051190008A91B0008B6
:10004000BF020008BF020008BF020008BF0200088C
:10005000BF020008BF020008BF020008BF0200087C
:10006000BF020008BF020008BF020008BF0200086C
:10007000BF020008BF020008BF020008BF0200085C
:10008000BF02000800000000BF020008BF02000815
:10009000BF020008BF020008BF020008BF0200083C
:1000A000BF020008BF020008BF020008BF0200082C
:1000B000BF020008BF020008BF020008BF0200081C
:1000C000BF020008BF020008BF020008BF0200080C
:1000D000BF020008BF020008BF020008BF020008FC
:1000E000BF020008BF020008BF020008BF020008EC
:1000F000BF020008BF020008BF02000800000000A5
:1001000000000000BF02000800000000BF0200085D
:10011000BF02000800000000BF020008BF02000884
:10012000BF020008BF020008BF020008BF020008AB
:10013000BF0200080000000000000000BF0200082D
:10014000BF020008BF02000800000000000000001D
:10015000000000000000000000000000000000009F
:10016000000000000000000000000000BF020008C6
:10017000BF020008000000000000000000000000B6
:1001800000000000BF0200080000000000000000A6
:10019000000000000000000000000000000000005F
:1001A0000000000000000000BF020008BF020008BD
:1001B000BF020008BF020008BF02000800000000E4
:1001C00000000000BF020008000000000000000066
:1001D000BF020008BF02000800F002F800F052F869
:1001E00014A696E8000CB244B344DA4501D100F0FD
:1001F00049F8BAE80F000FA696E83000A5EB040511
:1002000004EB0607AAEB0704A7F101074FEA15154F
:100210004FEA3414A4F10104AC4201D300F032F8E7
:1002200013F0010F18BFFB1A43F0010300F001F8AF
:10023000DBE71847101E0000301E0000103A24BFF4
:1002400078C878C1FAD8520724BF30C830C144BF3B
:1002500004680C6070470000704700000023002411
:1002600000250026103A28BF78C1FBD8520728BFC6
:1002700030C148BF0B6070471FB501F0CEFE1FBDF7
:1002800010B510BD00F060F81146FFF7F5FF01F062
:1002900025FE00F07EF803B4FFF7F2FF03BC00F088
:1002A00085F800000948804709480047FEE7FEE757
:1002B000FEE7FEE7FEE7FEE7FEE7FEE7FEE7FEE716
:1002C00004480549054A064B70470000AD1B00086D
:1002D000D9010008D82C0020D8320020D82E0020C8
:1002E000D82E002002F0FF0343EA032242EA024232
:1002F00000F002B84FF0000200B51346944696464F
:10030000203922BFA0E80C50A0E80C50B1F1200128
:10031000BFF4F7AF090728BFA0E80C5048BF0CC0D6
:100320005DF804EB890028BF40F8042B08BF704734
:1003300048BF20F8022B11F0804F18BF00F8012BA6
:100340007047704770477047754600F02BF8AE460F
:1003500005006946534620F00700854618B020B5D1
:10036000FFF7AEFFBDE820404FF000064FF000075A
:100370004FF000084FF0000BAC46ACE8C009ACE809
:10038000C009ACE8C009ACE8C00921F007018D46FE
:10039000704710B50446AFF300802046BDE810401A
:1003A000FFF779BF0048704710000020014918206E
:1003B000ABBEFEE72600020070470000FEE700002B
:1003C00070470000002808BF704710B54EF21001BA
:1003D00047F2001CCEF20001C0F2020C10F0030242
:1003E000034633D00023C1F804C08B6005230B60A3
:1003F0000B68DB0309D40B68DB035CBF0B685FEAA7
:10040000C33302D40B68DB03F2D50423012A0B604B
:1004100004D1431E04281BD336E000BF0023C1F8DB
:1004200004C08B6005230B600B68DB0309D40B68E9
:10043000DB035CBF0B685FEAC33302D40B68DB03EA
:10044000F2D50423022A0B6006D1831E04281BD296
:10045000BDE81040704700BF0022C1F804C08A60A8
:1004600005220A600A68D20309D40A68D2035CBF75
:100470000A685FEAC23202D40A68D203F2D5C31E08
:1004800004220A600428E3D34FF0000E0522042062
:1004900003E000BF043B0860DAD0C1F804C0C1F833
:1004A00008E00A600C68E4030AD40C68E4035CBF4B
:1004B0000C685FEAC43403D40C68E403F2D500BFCF
:1004C0000860C1F804C0C1F808E00A600C68E403E1
:1004D0000AD40C68E4035CBF0C685FEAC43403D43C
:1004E0000C68E403F2D500BF0860C1F804C0C1F88D
:1004F00008E00A600C68E4030AD40C68E4035CBFFB
:100500000C685FEAC43403D40C68E403F2D500BF7E
:100510000860C1F804C0C1F808E00A600C68E40390
:10052000B8D40C68E4035CBF0C685FEAC434B1D48F
:100530000C68E403F2D5ADE74EF2100100EB800049
:10054000CEF200014001486000208860052008606C
:100550000868C00309D40868C0035CBF08685FEA84
:10056000C03002D40868C003F2D504200860704788
:10057000B0B53C200021002400F0D2F80120012178
:1005800000F0CEF82420002100F0CAF841F2F7551F
:10059000FF20012100F0C4F8AC4204F10104F7D3BC
:1005A00026200021002400F0BBF841F2F75500BFDF
:1005B0000020012100F0B4F8AC4204F10104F7D3AB
:1005C000B0BD000010B540F20044C4F6000420465F
:1005D0004021002200F0E4F90A20FFF7F3FE204654
:1005E0004021012200F0DCF90A20FFF7EBFE122087
:1005F000002100F095F80A20FFF7E4FE102000210A
:1006000000F08EF80020012100F08AF83C20002143
:1006100000F086F80520012100F082F80120002179
:1006200000F07EF840F27004C2F20004207801214C
:100630000138C0B200F074F820880121013800EBC5
:100640001060C0F3072000F06BF80020012100F0DB
:1006500067F81120002100F063F80320012100F069
:100660005FF84420002100F05BF80020012100F039
:1006700057F860884FF0FF3101EBD000C0B2012184
:1006800000F04EF84520002100F04AF8002001213A
:1006900000F046F80020012100F042F82078012106
:1006A0000138C0B200F03CF820880121013800EB8D
:1006B0001060C0F3072000F033F84E20002100F056
:1006C0002FF80020012100F02BF84F20002100F02E
:1006D00027F80020012100F023F80020012100F07C
:1006E0001FF81820002100F01BF88020012100F0E5
:1006F00017F82120002100F013F80020012100F05C
:100700000FF88020012100F00BF82220002100F0DA
:1007100007F891200121BDE8104000F001B8000069
:10072000B0B582B040F27005C2F200050C462979DE
:100730008DF8070041B36879A0420BD040F2004029
:10074000C4F600001021224600F02AF902206C7144
:10075000FFF7F2FE4FF090404FF4006100F01AF9FD
:1007600028B342F60154C0F2311400BF0120013C0D
:100770001CD0FFF7E1FE4FF090404FF4006100F015
:1007800009F90028F2D112E040F20040C4F600005E
:1007900000F580604FF48061002200F001F9022032
:1007A000FFF7CAFE6879A042C8D1D3E7287242F6A3
:1007B0006C40C2F200000DF107010122C82300F0D5
:1007C000CBFE02B0B0BD000080B522200021FFF7B3
:1007D000A7FFF4200121FFF7A3FF20200021BDE89F
:1007E0008040FFF79DBF0000EFF3108072B600BF9E
:1007F000FEE700002DE9F04F82B00D68002D00F0FB
:10080000C58000F13847860546EA972741F2004641
:10081000C4F60006062240F2004EB04208BF052290
:10082000C4F2010E052F38BF3A464FF0000C0124E8
:1008300000270026009209E00D68013635FA06F21D
:1008400007F102070CF1040C00F0A08004FA06FB8B
:1008500015EA0B08F0D0D1F804A003230AF0030531
:100860006A1EBB40012A6FEA03090FD88268CB6871
:1008700002EA0902BB401A4382604268CAF30013CD
:1008800022EA0B02B3401A43426003E0032D01D178
:1008900003251FE0C2688B6802EA0902BB401A43C5
:1008A000022DC26016D16FF0030202EA5602024422
:1008B0000CF01C050F23D2F820A003FA05FB0B69EE
:1008C0002AEA0B0AAB4043EA0A031362D1F804A0F8
:1008D0000AF00305026805FA07F302EA09021A435F
:1008E0001AF4403F0260A7D041F26003C4F2020351
:1008F0001A684FF6084A42F001021A601A68CFF6E9
:10090000FF7A02F001020192019A26F0030272447A
:1009100052F80A900CF00C050F23009CAB4029EA1A
:10092000030304FA05F52B4342F80A30DEF80820E9
:100930004B6842EA080540F20C49DC0258BF22EA43
:100940000805CEF80850C4F20109D9F800209D022C
:1009500042EA080458BF22EA0804C9F80040DEF859
:1009600004209D0342EA080458BF22EA0804CEF896
:100970000440DEF80020DB0342EA080458BF22EA04
:100980000804CEF80040012456E700BF02B0BDE8DD
:10099000F08F00000069084018BF01207047000078
:1009A0001823002A08BF2823C150704742F6D040C0
:1009B000C2F200000068704740F2000042F6D041E9
:1009C000C2F20000C2F2000140680A6810440860E8
:1009D0007047000080B5032000F078F80F2000F089
:1009E00009F800281CBF012080BD00F029F8002074
:1009F00080BD000070B540F20006C2F200067168CA
:100A0000E1B1044640F20800C2F200004FF47A72ED
:100A10000068B2FBF1F1B0FBF1F000F0D1FE0F2C59
:100A20004FF0010508D838B94FF0FF3021460022B9
:100A3000002500F01FF83460284670BD012070BD0D
:100A400082B041F25800C4F20200816841F0010115
:100A50008160816801F0010101910199016841F013
:100A600080510160006800F080500090009802B052
:100A700000F0D0B810B54EF60C5CCEF2000CDCF8ED
:100A80000030C3F3022E8EF00704042C28BF042488
:100A9000BEF103034FF0FF3E0EFA04F438BF00230B
:100AA000A14399400EFA03F39A43114300F00F0259
:100AB00000F160430901043A03F5644362440028ED
:100AC00048BF02F10C03197010BD00004EF60C5126
:100AD000CEF200010A684FF6FF031A4060F30A22C3
:100AE00042F0806040F0FD7008607047B0F5007F14
:100AF00042D0002840F0808047F21400C4F2000089
:100B000050F8141CC26E01F4C06122F48072B1F579
:100B1000806FC2662ED150F8141C012262F34A2164
:100B200040F8141C40F20801C2F2000109683222A8
:100B300051434DF68362C4F21B32A1FB0212910CA9
:100B40000268520511D54A1C0FD0026852050CD517
:100B500059B10268520508D5012906D0026852052C
:100B600003D50229A1F10401EAD10068400544BF80
:100B7000032070470020704747F21400C4F20000C1
:100B800050F8141CC26E01F4C06142F48072B1F5D9
:100B9000806FC266EED150F8141C012262F34A2124
:100BA00040F8141C40F20801C2F200010968322228
:100BB00051434DF68362C4F21B32A1FB0212910C29
:100BC0000268520511D54A1C0FD0026852050CD597
:100BD00059B10268520508D5012906D002685205AC
:100BE00003D50229A1F10401EAD10068400544BF00
:100BF00003207047BEE700BF47F21400C4F20000B4
:100C000050F8141C022262F34A2140F8141C002000
:100C10007047000047F20800C4F20000016841F488
:100C20008041016070470000704700002DE9F047E7
:100C300000285DD042F2000AC4F2020A0446DAF843
:100C400000000D4600F00F0088420CD2DAF80000D8
:100C500020F00F002843CAF80000DAF8000000F086
:100C60000F00A84244D1216841F20808C807C4F225
:100C7000020803D1880740F1C480A9E06068022817
:100C800032D0032838D158F8082C920130D5D8F842
:100C90000420D8F8042042F20043C2F30312D8F82B
:100CA00004700132C0F2F403B3FBF2F2C7F306237F
:100CB000D8F804705A43C7F34163022707EB430394
:100CC000B2FBF3F24BF20043C0F2C4439A4255D94F
:100CD000D8F8002012F0F00F45D089074ED5A16852
:100CE00000294BD13FE000BF58F8081C890307D406
:100CF0000120BDE8F08700BF58F8081C4905F7D56A
:100D0000D8F8001001F00C01042937D0D8F80010F1
:100D100001F00C01082931D0D8F8001001F00C01C5
:100D20000C292BD1D8F80410D8F8041042F2004254
:100D3000C1F30311D8F804300131C0F2F402B2FB60
:100D4000F1F1C3F30622D8F804305143C3F34162F2
:100D5000022303EB4202B1FBF2F14BF20042C0F27C
:100D6000C44291420AD9D8F80010082262F3071150
:100D70004FF00109C8F8001002E000BF4FF0000971
:100D8000D8F8001021F003010843C8F80000FFF76D
:100D90000DFE064641F28837D8F80000616800F081
:100DA0000C00B0EB810F07D0FFF700FE801BB842AC
:100DB000F2D90320BDE8F0872168880708D4B9F18B
:100DC000000F1ED0D8F8000020F0F00017E000BFA0
:100DD000480705D5D8F8000040F4E060C8F80000E6
:100DE000080706D5D8F80000072262F30D20C8F8DE
:100DF0000000D8F80000A26820F0F0001043C8F806
:100E00000000DAF8000000F00F00A8421BD9DAF861
:100E1000000020F00F002843CAF80000FFF7C6FDCD
:100E2000064641F2883700BFDAF8000000F00F00F4
:100E3000A84207D0FFF7BAFD801BB842F4D90320BF
:100E4000BDE8F0872168480707D5D8F80000E268B8
:100E500020F4E0601043C8F80000080708D5D8F86F
:100E60000000216920F4605040EAC100C8F8000089
:100E7000D8F8000000F00C00042842F20040C0F254
:100E8000F40024D0D8F8001001F00C0108291ED07D
:100E9000D8F8001001F00C010C2917D1D8F8041073
:100EA000D8F80410D8F80420C1F303110131B0FBC5
:100EB000F1F0C2F30621D8F804204843C2F341619F
:100EC000022202EB4101B0FBF1F000E00020D8F873
:100ED000001042F23402C1F30311C0F60002515C6B
:100EE00040F2080201F01F0120FA01F140F2000077
:100EF000C2F200000068C2F200021160BDE8F047D3
:100F0000FFF778BD41F20000C4F20200016841F42D
:100F1000002101607047000010B541F21C04C4F2CA
:100F200002042068C00558BF10BDFFF77DFE4FF4D6
:100F30008070606010BD0000002804BF0120704771
:100F40002DE9F04182B00446007841F20006C00766
:100F5000C4F202061ED1207880073DD42078000715
:100F600064D42078400700F187802078800600F163
:100F7000D980E569002D00F04482B06800F00C00D3
:100F80000C2840F03181012D40F09081012002B009
:100F9000BDE8F081B06800F00C01F068082961D06C
:100FA000032281F00C0122EA00000844B0FA80F02C
:100FB000400957D16068B0F5803F07D0B0F5A02F49
:100FC00040F0E480306840F480203060306840F4C5
:100FD00080303060E5E000BFB068F16800F00C00E0
:100FE000042871D001F0030180F00C0081F00201AF
:100FF0000844B0FA80F0400966D1E1683068002901
:1010000000F0E08040F480703060FFF7CFFC0546D0
:101010003068400500F10A81FFF7C8FC401B022838
:10102000F6D9032002B0BDE8F08100BF6169D6F8AF
:101030009400002900F0948040F00100C6F894006C
:10104000FFF7B4FC054600BFD6F8940080073FF5D3
:1010500088AFFFF7ABFC401B0228F5D9032002B094
:10106000BDE8F081306880037FF575AF60680028C7
:101070007FF471AF3EE000BFB06D5FEAC00808D4F6
:10108000B06D40F08050B065B06D00F080500190C0
:10109000019847F20007C4F200073868C0052DD454
:1010A000386840F480703860FFF780FC054600BF68
:1010B0003868C00522D4FFF779FC401B0228F7D915
:1010C000032002B0BDE8F0813068400501D5E0683A
:1010D00080B17068216920F0FE4040EA01607060D4
:1010E00040F20000C2F200000068FFF783FC002815
:1010F0003FF434AF012002B0BDE8F081A0680128C0
:1011000008D0052840F0B080D6F8900040F00400E8
:10111000C6F89000D6F8900040F00100C6F89000A4
:10112000B0E000BFA169D6F89800002900F08680E1
:1011300040F00100C6F89800FFF738FC054600BFF4
:10114000D6F8980080073FF514AFFFF72FFC401B3F
:1011500002284FF00300F3D902B0BDE8F08100BFD0
:1011600020F00100C6F89400FFF720FC054600BF00
:10117000D6F8940080077FF5F4AEFFF717FC401B0C
:101180000228F5D9032002B0BDE8F08131680028BB
:1011900021F480313160316821F48021316000F028
:1011A000BF80FFF703FC0546306880033FF5D3AEF0
:1011B000FFF7FCFB401B6428F6D9032002B0BDE812
:1011C000F08100BF20F480703060FFF7EFFB054630
:1011D000306840057FF5C2AEFFF7E8FB401B0228F0
:1011E0004FF00300F4D9B7E7306820F0807030602A
:1011F000FFF7DCFB022D05460CD100BF30688001F3
:1012000040F1BA80FFF7D2FB401B02284FF00300E9
:10121000F4D9A1E73068800140F1EC80FFF7C6FB0C
:10122000401B02284FF00300F4D995E7706821694C
:1012300020F0FE4040EA016070608FE620F001007F
:10124000C6F89800FFF7B2FB054600BFD6F8980035
:1012500080077FF58EAEFFF7A9FB401B02284FF0F9
:101260000300F3D978E700BFD6F89010002821F0EA
:101270000101C6F89010D6F8901021F00401C6F8CC
:1012800090105DD0FFF792FB054641F2883700BF12
:10129000D6F89000800765D4FFF788FB401BB84262
:1012A000F6D9032002B0BDE8F08100BFF068216AE2
:1012B00000F003028A427FF41DAF626A6FF00F03F1
:1012C00000F0F00103EB021291427FF413AFA16A28
:1012D00000F4FE42B2EB012F7FF40CAFE16A00F0A4
:1012E0007842B2EBC16F7FF405AF226B0023CFF6DB
:1012F000E07303EA025200F4C001A2F50012914229
:101300007FF4F8AE616B4FF07E4202EA016100F0BB
:10131000C06001F17E4188427FF4ECAE71E000BF15
:10132000FFF744FB054600BF306880037FF513AE2E
:10133000FFF73CFB401B64284FF00300F4D90BE798
:10134000FFF734FB054641F2883700BFD6F890001E
:10135000800707D5FFF72AFB401BB8424FF0030078
:10136000F4D9F9E6B8F1000F3FF5FFADB06D20F00C
:101370008050B065F9E500BFF06848F20C01C0F29A
:101380009F1104F1200700EA010C8ECF6FF00F00CF
:10139000D4E90C5400EB02100022CFF6E07241EACF
:1013A0000C0102EA05520843A2F500124FF07E45F7
:1013B00040EA032005EA0465104305F17E4540EA52
:1013C000C7602843F060306840F080703060F0689B
:1013D00040F08070F060FFF7E9FA04463068800161
:1013E0000FD4FFF7E3FA001B02284FF00300F5D9F2
:1013F000B2E600BFF0684FF6FC71CFF6EE61084030
:10140000F060002002B0BDE8F0810000002804BFB9
:1014100001207047B0B50446406A28B10020206121
:1014200004F1140006E000BF6068B0F5827F03D0CD
:1014300004F11C00002101600025A56294F85D0004
:1014400020B9204684F85C5000F052F8022084F85D
:101450005D002068D4F80CE00268BEF5E06F22F071
:10146000400202604EF4006298BF0125B2F5706F31
:101470001CBF0023A3624FEA053CD4E90135D4E93F
:10148000042103F4827305F404452B4402F00202A4
:101490001A44A36901F00101E569114403F40072E3
:1014A000114405F03802256A114405F08002A56A4E
:1014B000114405F40052114301600421626A0EF4E4
:1014C000706501EA1341636B45EA0C0502F01002F6
:1014D000294303F00803114319434160C16921F412
:1014E0000061C16100200121206684F85D10B0BD5B
:1014F000006843F20001C4F20101884218BF70473E
:1015000080B586B041F24C00C4F20200416941F45A
:1015100080514161416901F4805101910199016853
:1015200041F002010160006801A900F00200019091
:10153000019828200190022002900020CDE90300AC
:101540000520059040F20040C4F60000FFF752F974
:1015500006B0BDE8804070472DE9F04182B00446F6
:1015600090F85C00012803D1022002B0BDE8F081B0
:1015700001201D4616460F4684F85C00FFF716FA58
:1015800094F85D1001290DD18046002F4FF0010025
:1015900018BF002E0ED1002184F85C1002B0BDE807
:1015A000F08100BF0220002184F85C1002B0BDE889
:1015B000F08100BF0320002184F85D002166A7634D
:1015C000A687E6872164A4F84410A4F84610A06812
:1015D000E164B0F5004F2068216507D1016821F072
:1015E00040010160016841F48041016001684906E1
:1015F00003D4016841F0400101606168731EE26834
:10160000B1FA81F1B3FA83F349095B09B2F5E06FEE
:1016100041EA03013CD931B137F8021BC160A7632D
:10162000E08F0138E087E08F00286FD0681C0CD174
:101630001DE000BFA16B31F8022BC260A163E08FF7
:101640000138E087E08F002860D020688168890732
:10165000F0D4FFF7ABF9A0EB0800A842F2D30320C7
:10166000A5E000BFFFF7A2F9E08F00284ED0206868
:1016700081688907F6D5A16B31F8022BC260A1639E
:10168000E08F0138E087E08F0028F0D13EE000BF16
:1016900089B1E18F02294FF6FE7103D337F8022B8F
:1016A000C26004E03A7801310273A06B471CA76363
:1016B000E08F0844E087E08F40B3681C5BD04FF6B2
:1016C000FE70461C08E000BFFFF770F9A0EB0800B1
:1016D000A842C4D2E08FC8B1216888688007F3D5DA
:1016E000E28FA06B022A05D330F8022BCA604FF6B6
:1016F000FE7104E000780873A06B31460130A063EE
:10170000E08F0844E087E08F0028E5D120464FF4C1
:10171000C0512A46434600F01DF968B920462946C3
:10172000424600F0D7F938B920464FF4C0612A4646
:10173000434600F00FF928B1206E40F020002066EB
:1017400020202066A06838B9002001902068C16878
:101750000191806801900198206E38B3012000212A
:1017600084F85C1002B0BDE8F08100BFFFF71EF9FD
:10177000E08F0028CAD0206881688907F6D5E28FFB
:10178000A16B012A08D931F8022BC260A163E08F56
:101790000238E087ECE700BF09780173A06B0130E5
:1017A000A063E08F0138E087E2E700BF002001215D
:1017B00084F85D10002184F85C1002B0BDE8F0816F
:1017C000411E0020B0EB116F1CBF012070474EF28C
:1017D0001002CEF2000251604EF62351CEF200010B
:1017E000F0230B700721906011607047FEE7000046
:1017F0002DE9F04F87B0002741F24C000697C4F264
:101800000200016840F2004841F0040101600168F3
:10181000C4F6000801F0040101910199016808F57E
:10182000806541F0200101600168002201F0200183
:101830000191019901684FF4005641F002010160E5
:10184000016801F0020101910199016841F0010173
:10185000016000684FF4005100F001000190019810
:101860002846FFF79DF840464FF4006100224FF4F0
:10187000006BFFF795F828464FF4806101224FF482
:1018800080644FF00109FFF78BF840465021012298
:101890004FF0500AFFF784F8CDE9026902AE2846FE
:1018A0003146CDE90477FEF7A5FF40463146CDE944
:1018B00002B9CDE90477FEF79DFF4FF09040314625
:1018C000CDE902B70497FEF795FFCDE9024903245D
:1018D0002846314604970594FEF78CFF4046314672
:1018E000CDE902A9CDE90474FEF784FF07B0BDE895
:1018F000F08F000010B542F66C4043F20001C2F2D6
:101900000000C4F201014FF4827200234FF4E06C36
:101910004FF4007E102480E80E1007210822C0E951
:101920000433C0E906E4C0E90833C0E90A31C0E97C
:101930000C32FFF76BFD002808BF10BDBDE810405A
:10194000FEF752BFFEE70000FFF7E6FAFEE70000F1
:10195000704700002DE9F04782B000261F469046F0
:101960000D4681468DF80360FFF720F8381A00EB2A
:101970000807FFF71BF840F20801C2F200010968EE
:1019800023225143090DD9F8004079430191A16800
:10199000294235D0824618F1010035D0B5F5C06F27
:1019A0001AD100BF207B8DF803009DF80300FEF7DD
:1019B000FDFFA0EB0A00B8425ED201980199002811
:1019C000A1F101010191D9F80010896808BF07460B
:1019D00011F4C06FE6D112E0FEF7E8FFA0EB0A00B9
:1019E000B84249D2019801990028A1F10101019161
:1019F000D9F80010896808BF07462942ECD10026B3
:101A0000304602B0BDE8F0870026B5F5C06F25D19D
:101A1000207B8DF803009DF80300A06810F4C06FD0
:101A2000EDD0207B8DF803009DF80300A06810F432
:101A3000C06FE4D0207B8DF803009DF80300A06800
:101A400010F4C06FDBD0207B8DF803009DF80300FD
:101A5000A06810F4C06FDBD1D2E700BFA0682842B5
:101A6000CDD0A0682842CAD0A0682842C7D0A068BC
:101A70002842F3D1C4E700BFD9E900014268B1F5BB
:101A8000827F22F0E00242600BD1D9F80810B1F554
:101A9000004F02D0B1F5806F03D1016821F0400101
:101AA0000160D9F82810B1F5005F07D1016821F471
:101AB00000510160016841F400510160012089F882
:101AC0005D00002089F85C000326304602B0BDE8C6
:101AD000F0870000F0B581B015460E460446FEF7CB
:101AE00065FF281A8719FEF761FF40F20801C2F26C
:101AF00000010968C1F3CB317943009121688A68FC
:101B0000120622D50546701C15D000BFFEF74EFF09
:101B1000401BB8421CD2009800990028A1F1010195
:101B200000912168896808BF07460806EED40CE0DA
:101B30008868000609D58868000606D5886800060A
:101B400044BF88685FEA0060F2D4002001B0F0BDB5
:101B5000D4E900014268B1F5827F22F0E0024260E0
:101B60000AD1A168B1F5004F02D0B1F5806F03D161
:101B7000016821F040010160A16AB1F5005F07D161
:101B8000016821F400510160016841F400510160D5
:101B9000012084F85D00002084F85C00032001B07F
:101BA000F0BD000070470000FEF706BF4EF68850FB
:101BB000CEF20000016841F470010160704700003E
:101BC0002DE9F04F81B0DDF830B007460BEB010096
:101BD000DDF828A01FFA80F81C4638464346154613
:101BE0000E46CDF800A000F02FF80BEB07001FFA0F
:101BF00080F9384631464A462346CDF800A000F029
:101C000023F8A5EB0B001FFA80FA31460A9E5046D6
:101C10002A462346009600F017F8A4EB0B0086B284
:101C200038460A9F31462A462346009700F00CF8B2
:101C30000B9F4846414652463346009700F004F851
:101C400001B0BDE8F08F0000904201D9704700BF9D
:101C5000994248D82DE9F04F81B040F270060A9FB2
:101C6000C2F200067688002F00965DD0012F00F0AA
:101C70008980022F44D140F27C0C41F274694FF00C
:101C8000070E4FF00108C2F2000CC2F2000900BFBB
:101C9000009C87B267434FEAD70A0C46A5B20AEB0D
:101CA000D5052EEA04061CF8057008FA06F627EAA0
:101CB000060B19F8057001343E43A7B29F420CF899
:101CC00005B009F80560E9D9013084B29442DFD942
:101CD00084E000BFC11C89B2914288BF70470430C4
:101CE00081B29142B2D8411C89B29142AED8811CD6
:101CF00089B29142EED9A9E7013087B297426DD8F7
:101D00000E4600BF771CBFB29F42F5D8B71CBFB2CA
:101D10009F42F1D8F71CBFB29F42EDD80436B7B24C
:101D20009F42EFD9E8E700BF40F27C0C41F27469B2
:101D30004FF0070E4FF00108C2F2000CC2F200098A
:101D4000009C87B267434FEAD70A0C46A5B20AEB5C
:101D5000D5052EEA04061CF8057008FA06F627EAEF
:101D6000060B19F80570013427EA0606A7B29F4250
:101D70000CF805B009F80560E8D9013084B2944246
:101D8000DED92BE040F27C0941F2746A4FF0070E75
:101D90004FF00108C2F20009C2F2000A009F84B2AB
:101DA0007C434FEAD40B0C46A5B20BEBD5052EEACB
:101DB000040619F8057008FA06F61AF805C0374344
:101DC000013409F805702CEA0607A6B29E420AF80B
:101DD0000570E9D9013087B29742DFD901B0BDE87B
:101DE000F08F00002DE9F04124200021FEF798FC3F
:101DF00040F27004C2F20004B4F80080B8F1000FA1
:101E000020D0608840F27C06C2F2000604E000BFE9
:101E1000B8F1020FB84615DB0828A8F10107F7D37F
:101E2000002500BF7843C11700EB517006EBE000BE
:101E3000405D0121FEF774FC60880135B5EBD00FE1
:101E4000F0D3E5E726200021FEF76AFCB4F8008015
:101E5000B8F1000F20D0608841F27466C2F200062B
:101E600004E000BFB8F1020FB84615DB0828A8F15E
:101E70000107F7D3002500BF7843C11700EB51706D
:101E800006EBE000405D0121FEF74AFC6088013569
:101E9000B5EBD00FF0D3E5E7BDE8F041FEF794BC19
:101EA00010B540F27000C2F200000188408848433B
:101EB000C40808BF10BD40F27C00C2F200002146F9
:101EC000FF22FEF70FFA41F27460C2F200002146D1
:101ED000FEF710FA10BD0000FEE7000096B0FEF716
:101EE00079FD002400200E94CDE90C44CDE90A448C
:101EF000FEF7FCFD01204FF4803103250890099185
:101F00000221CDE910501420CDE9120108A80F914B
:101F1000CDE91411FFF710F820B1EFF3108072B67D
:101F2000FEE700BF0F20CDE9030503A80421CDE99A
:101F300005440794FEF77AFE20B1EFF3108072B6E5
:101F4000FEE700BF40F60004C4F60004FEF7DAFF27
:101F5000FFF74EFCFFF7CEFC20464FF40051002265
:101F60000025FEF71DFD3220FEF72CFA20464FF427
:101F7000005101220126FEF713FD3220FEF722FA5E
:101F800020464FF400510022FEF70AFD3220FEF7F2
:101F900019FA20464FF400510122FEF701FD3220CC
:101FA000FEF710FA40F2700040F22811C2F2000071
:101FB000C0F2980101604FF4807105724160FEF734
:101FC00001FBFFF76DFFFEF7D3FA02270020002187
:101FD00064223223CDE900560297FFF7F1FD6E200F
:101FE0000021D2223223CDE900570297FFF7E8FD06
:101FF000FFF7F8FE20464FF400510022FEF7D0FC18
:10200000C820FEF7DFF920464FF400510122FEF709
:10201000C7FCC820FEF7D6F9ECE7F1EE100A4FF640
:10202000FF71C0F2C03120EA010040F04070E1EEE3
:10203000100A7047000000000000000001020304C5
:1020400006070809682000080000002010000000B2
:102050003C0200087820000810000020C832000070
:102060005C020008000000001000000001000000F9
:082070000024F4000000000050
:04000005080001D915
:00000001FF
